{
    "contractName": "GnosisSafe",
    "abi": [
        {
            "inputs": [],
            "stateMutability": "nonpayable",
            "type": "constructor"
        },
        {
            "anonymous": false,
            "inputs": [
                {
                    "indexed": false,
                    "internalType": "address",
                    "name": "owner",
                    "type": "address"
                }
            ],
            "name": "AddedOwner",
            "type": "event"
        },
        {
            "anonymous": false,
            "inputs": [
                {
                    "indexed": true,
                    "internalType": "bytes32",
                    "name": "approvedHash",
                    "type": "bytes32"
                },
                {
                    "indexed": true,
                    "internalType": "address",
                    "name": "owner",
                    "type": "address"
                }
            ],
            "name": "ApproveHash",
            "type": "event"
        },
        {
            "anonymous": false,
            "inputs": [
                {
                    "indexed": false,
                    "internalType": "address",
                    "name": "handler",
                    "type": "address"
                }
            ],
            "name": "ChangedFallbackHandler",
            "type": "event"
        },
        {
            "anonymous": false,
            "inputs": [
                {
                    "indexed": false,
                    "internalType": "address",
                    "name": "guard",
                    "type": "address"
                }
            ],
            "name": "ChangedGuard",
            "type": "event"
        },
        {
            "anonymous": false,
            "inputs": [
                {
                    "indexed": false,
                    "internalType": "uint256",
                    "name": "threshold",
                    "type": "uint256"
                }
            ],
            "name": "ChangedThreshold",
            "type": "event"
        },
        {
            "anonymous": false,
            "inputs": [
                {
                    "indexed": false,
                    "internalType": "address",
                    "name": "module",
                    "type": "address"
                }
            ],
            "name": "DisabledModule",
            "type": "event"
        },
        {
            "anonymous": false,
            "inputs": [
                {
                    "indexed": false,
                    "internalType": "address",
                    "name": "module",
                    "type": "address"
                }
            ],
            "name": "EnabledModule",
            "type": "event"
        },
        {
            "anonymous": false,
            "inputs": [
                {
                    "indexed": false,
                    "internalType": "bytes32",
                    "name": "txHash",
                    "type": "bytes32"
                },
                {
                    "indexed": false,
                    "internalType": "uint256",
                    "name": "payment",
                    "type": "uint256"
                }
            ],
            "name": "ExecutionFailure",
            "type": "event"
        },
        {
            "anonymous": false,
            "inputs": [
                {
                    "indexed": true,
                    "internalType": "address",
                    "name": "module",
                    "type": "address"
                }
            ],
            "name": "ExecutionFromModuleFailure",
            "type": "event"
        },
        {
            "anonymous": false,
            "inputs": [
                {
                    "indexed": true,
                    "internalType": "address",
                    "name": "module",
                    "type": "address"
                }
            ],
            "name": "ExecutionFromModuleSuccess",
            "type": "event"
        },
        {
            "anonymous": false,
            "inputs": [
                {
                    "indexed": false,
                    "internalType": "bytes32",
                    "name": "txHash",
                    "type": "bytes32"
                },
                {
                    "indexed": false,
                    "internalType": "uint256",
                    "name": "payment",
                    "type": "uint256"
                }
            ],
            "name": "ExecutionSuccess",
            "type": "event"
        },
        {
            "anonymous": false,
            "inputs": [
                {
                    "indexed": false,
                    "internalType": "address",
                    "name": "owner",
                    "type": "address"
                }
            ],
            "name": "RemovedOwner",
            "type": "event"
        },
        {
            "anonymous": false,
            "inputs": [
                {
                    "indexed": true,
                    "internalType": "address",
                    "name": "sender",
                    "type": "address"
                },
                {
                    "indexed": false,
                    "internalType": "uint256",
                    "name": "value",
                    "type": "uint256"
                }
            ],
            "name": "SafeReceived",
            "type": "event"
        },
        {
            "anonymous": false,
            "inputs": [
                {
                    "indexed": true,
                    "internalType": "address",
                    "name": "initiator",
                    "type": "address"
                },
                {
                    "indexed": false,
                    "internalType": "address[]",
                    "name": "owners",
                    "type": "address[]"
                },
                {
                    "indexed": false,
                    "internalType": "uint256",
                    "name": "threshold",
                    "type": "uint256"
                },
                {
                    "indexed": false,
                    "internalType": "address",
                    "name": "initializer",
                    "type": "address"
                },
                {
                    "indexed": false,
                    "internalType": "address",
                    "name": "fallbackHandler",
                    "type": "address"
                }
            ],
            "name": "SafeSetup",
            "type": "event"
        },
        {
            "anonymous": false,
            "inputs": [
                {
                    "indexed": true,
                    "internalType": "bytes32",
                    "name": "msgHash",
                    "type": "bytes32"
                }
            ],
            "name": "SignMsg",
            "type": "event"
        },
        {
            "stateMutability": "nonpayable",
            "type": "fallback"
        },
        {
            "inputs": [],
            "name": "VERSION",
            "outputs": [
                {
                    "internalType": "string",
                    "name": "",
                    "type": "string"
                }
            ],
            "stateMutability": "view",
            "type": "function"
        },
        {
            "inputs": [
                {
                    "internalType": "address",
                    "name": "owner",
                    "type": "address"
                },
                {
                    "internalType": "uint256",
                    "name": "_threshold",
                    "type": "uint256"
                }
            ],
            "name": "addOwnerWithThreshold",
            "outputs": [],
            "stateMutability": "nonpayable",
            "type": "function"
        },
        {
            "inputs": [
                {
                    "internalType": "address",
                    "name": "",
                    "type": "address"
                },
                {
                    "internalType": "bytes32",
                    "name": "",
                    "type": "bytes32"
                }
            ],
            "name": "approvedHashes",
            "outputs": [
                {
                    "internalType": "uint256",
                    "name": "",
                    "type": "uint256"
                }
            ],
            "stateMutability": "view",
            "type": "function"
        },
        {
            "inputs": [
                {
                    "internalType": "uint256",
                    "name": "_threshold",
                    "type": "uint256"
                }
            ],
            "name": "changeThreshold",
            "outputs": [],
            "stateMutability": "nonpayable",
            "type": "function"
        },
        {
            "inputs": [
                {
                    "internalType": "address",
                    "name": "prevModule",
                    "type": "address"
                },
                {
                    "internalType": "address",
                    "name": "module",
                    "type": "address"
                }
            ],
            "name": "disableModule",
            "outputs": [],
            "stateMutability": "nonpayable",
            "type": "function"
        },
        {
            "inputs": [
                {
                    "internalType": "address",
                    "name": "module",
                    "type": "address"
                }
            ],
            "name": "enableModule",
            "outputs": [],
            "stateMutability": "nonpayable",
            "type": "function"
        },
        {
            "inputs": [
                {
                    "internalType": "address",
                    "name": "to",
                    "type": "address"
                },
                {
                    "internalType": "uint256",
                    "name": "value",
                    "type": "uint256"
                },
                {
                    "internalType": "bytes",
                    "name": "data",
                    "type": "bytes"
                },
                {
                    "internalType": "enum Enum.Operation",
                    "name": "operation",
                    "type": "uint8"
                }
            ],
            "name": "execTransactionFromModule",
            "outputs": [
                {
                    "internalType": "bool",
                    "name": "success",
                    "type": "bool"
                }
            ],
            "stateMutability": "nonpayable",
            "type": "function"
        },
        {
            "inputs": [
                {
                    "internalType": "address",
                    "name": "to",
                    "type": "address"
                },
                {
                    "internalType": "uint256",
                    "name": "value",
                    "type": "uint256"
                },
                {
                    "internalType": "bytes",
                    "name": "data",
                    "type": "bytes"
                },
                {
                    "internalType": "enum Enum.Operation",
                    "name": "operation",
                    "type": "uint8"
                }
            ],
            "name": "execTransactionFromModuleReturnData",
            "outputs": [
                {
                    "internalType": "bool",
                    "name": "success",
                    "type": "bool"
                },
                {
                    "internalType": "bytes",
                    "name": "returnData",
                    "type": "bytes"
                }
            ],
            "stateMutability": "nonpayable",
            "type": "function"
        },
        {
            "inputs": [
                {
                    "internalType": "address",
                    "name": "start",
                    "type": "address"
                },
                {
                    "internalType": "uint256",
                    "name": "pageSize",
                    "type": "uint256"
                }
            ],
            "name": "getModulesPaginated",
            "outputs": [
                {
                    "internalType": "address[]",
                    "name": "array",
                    "type": "address[]"
                },
                {
                    "internalType": "address",
                    "name": "next",
                    "type": "address"
                }
            ],
            "stateMutability": "view",
            "type": "function"
        },
        {
            "inputs": [],
            "name": "getOwners",
            "outputs": [
                {
                    "internalType": "address[]",
                    "name": "",
                    "type": "address[]"
                }
            ],
            "stateMutability": "view",
            "type": "function"
        },
        {
            "inputs": [
                {
                    "internalType": "uint256",
                    "name": "offset",
                    "type": "uint256"
                },
                {
                    "internalType": "uint256",
                    "name": "length",
                    "type": "uint256"
                }
            ],
            "name": "getStorageAt",
            "outputs": [
                {
                    "internalType": "bytes",
                    "name": "",
                    "type": "bytes"
                }
            ],
            "stateMutability": "view",
            "type": "function"
        },
        {
            "inputs": [],
            "name": "getThreshold",
            "outputs": [
                {
                    "internalType": "uint256",
                    "name": "",
                    "type": "uint256"
                }
            ],
            "stateMutability": "view",
            "type": "function"
        },
        {
            "inputs": [
                {
                    "internalType": "address",
                    "name": "module",
                    "type": "address"
                }
            ],
            "name": "isModuleEnabled",
            "outputs": [
                {
                    "internalType": "bool",
                    "name": "",
                    "type": "bool"
                }
            ],
            "stateMutability": "view",
            "type": "function"
        },
        {
            "inputs": [
                {
                    "internalType": "address",
                    "name": "owner",
                    "type": "address"
                }
            ],
            "name": "isOwner",
            "outputs": [
                {
                    "internalType": "bool",
                    "name": "",
                    "type": "bool"
                }
            ],
            "stateMutability": "view",
            "type": "function"
        },
        {
            "inputs": [],
            "name": "nonce",
            "outputs": [
                {
                    "internalType": "uint256",
                    "name": "",
                    "type": "uint256"
                }
            ],
            "stateMutability": "view",
            "type": "function"
        },
        {
            "inputs": [
                {
                    "internalType": "address",
                    "name": "prevOwner",
                    "type": "address"
                },
                {
                    "internalType": "address",
                    "name": "owner",
                    "type": "address"
                },
                {
                    "internalType": "uint256",
                    "name": "_threshold",
                    "type": "uint256"
                }
            ],
            "name": "removeOwner",
            "outputs": [],
            "stateMutability": "nonpayable",
            "type": "function"
        },
        {
            "inputs": [
                {
                    "internalType": "address",
                    "name": "handler",
                    "type": "address"
                }
            ],
            "name": "setFallbackHandler",
            "outputs": [],
            "stateMutability": "nonpayable",
            "type": "function"
        },
        {
            "inputs": [
                {
                    "internalType": "address",
                    "name": "guard",
                    "type": "address"
                }
            ],
            "name": "setGuard",
            "outputs": [],
            "stateMutability": "nonpayable",
            "type": "function"
        },
        {
            "inputs": [
                {
                    "internalType": "bytes32",
                    "name": "",
                    "type": "bytes32"
                }
            ],
            "name": "signedMessages",
            "outputs": [
                {
                    "internalType": "uint256",
                    "name": "",
                    "type": "uint256"
                }
            ],
            "stateMutability": "view",
            "type": "function"
        },
        {
            "inputs": [
                {
                    "internalType": "address",
                    "name": "targetContract",
                    "type": "address"
                },
                {
                    "internalType": "bytes",
                    "name": "calldataPayload",
                    "type": "bytes"
                }
            ],
            "name": "simulateAndRevert",
            "outputs": [],
            "stateMutability": "nonpayable",
            "type": "function"
        },
        {
            "inputs": [
                {
                    "internalType": "address",
                    "name": "prevOwner",
                    "type": "address"
                },
                {
                    "internalType": "address",
                    "name": "oldOwner",
                    "type": "address"
                },
                {
                    "internalType": "address",
                    "name": "newOwner",
                    "type": "address"
                }
            ],
            "name": "swapOwner",
            "outputs": [],
            "stateMutability": "nonpayable",
            "type": "function"
        },
        {
            "stateMutability": "payable",
            "type": "receive"
        },
        {
            "inputs": [
                {
                    "internalType": "address[]",
                    "name": "_owners",
                    "type": "address[]"
                },
                {
                    "internalType": "uint256",
                    "name": "_threshold",
                    "type": "uint256"
                },
                {
                    "internalType": "address",
                    "name": "to",
                    "type": "address"
                },
                {
                    "internalType": "bytes",
                    "name": "data",
                    "type": "bytes"
                },
                {
                    "internalType": "address",
                    "name": "fallbackHandler",
                    "type": "address"
                },
                {
                    "internalType": "address",
                    "name": "paymentToken",
                    "type": "address"
                },
                {
                    "internalType": "uint256",
                    "name": "payment",
                    "type": "uint256"
                },
                {
                    "internalType": "address payable",
                    "name": "paymentReceiver",
                    "type": "address"
                }
            ],
            "name": "setup",
            "outputs": [],
            "stateMutability": "nonpayable",
            "type": "function"
        },
        {
            "inputs": [
                {
                    "internalType": "address",
                    "name": "to",
                    "type": "address"
                },
                {
                    "internalType": "uint256",
                    "name": "value",
                    "type": "uint256"
                },
                {
                    "internalType": "bytes",
                    "name": "data",
                    "type": "bytes"
                },
                {
                    "internalType": "enum Enum.Operation",
                    "name": "operation",
                    "type": "uint8"
                },
                {
                    "internalType": "uint256",
                    "name": "safeTxGas",
                    "type": "uint256"
                },
                {
                    "internalType": "uint256",
                    "name": "baseGas",
                    "type": "uint256"
                },
                {
                    "internalType": "uint256",
                    "name": "gasPrice",
                    "type": "uint256"
                },
                {
                    "internalType": "address",
                    "name": "gasToken",
                    "type": "address"
                },
                {
                    "internalType": "address payable",
                    "name": "refundReceiver",
                    "type": "address"
                },
                {
                    "internalType": "bytes",
                    "name": "signatures",
                    "type": "bytes"
                }
            ],
            "name": "execTransaction",
            "outputs": [
                {
                    "internalType": "bool",
                    "name": "success",
                    "type": "bool"
                }
            ],
            "stateMutability": "payable",
            "type": "function"
        },
        {
            "inputs": [
                {
                    "internalType": "bytes32",
                    "name": "dataHash",
                    "type": "bytes32"
                },
                {
                    "internalType": "bytes",
                    "name": "data",
                    "type": "bytes"
                },
                {
                    "internalType": "bytes",
                    "name": "signatures",
                    "type": "bytes"
                }
            ],
            "name": "checkSignatures",
            "outputs": [],
            "stateMutability": "view",
            "type": "function"
        },
        {
            "inputs": [
                {
                    "internalType": "bytes32",
                    "name": "dataHash",
                    "type": "bytes32"
                },
                {
                    "internalType": "bytes",
                    "name": "data",
                    "type": "bytes"
                },
                {
                    "internalType": "bytes",
                    "name": "signatures",
                    "type": "bytes"
                },
                {
                    "internalType": "uint256",
                    "name": "requiredSignatures",
                    "type": "uint256"
                }
            ],
            "name": "checkNSignatures",
            "outputs": [],
            "stateMutability": "view",
            "type": "function"
        },
        {
            "inputs": [
                {
                    "internalType": "address",
                    "name": "to",
                    "type": "address"
                },
                {
                    "internalType": "uint256",
                    "name": "value",
                    "type": "uint256"
                },
                {
                    "internalType": "bytes",
                    "name": "data",
                    "type": "bytes"
                },
                {
                    "internalType": "enum Enum.Operation",
                    "name": "operation",
                    "type": "uint8"
                }
            ],
            "name": "requiredTxGas",
            "outputs": [
                {
                    "internalType": "uint256",
                    "name": "",
                    "type": "uint256"
                }
            ],
            "stateMutability": "nonpayable",
            "type": "function"
        },
        {
            "inputs": [
                {
                    "internalType": "bytes32",
                    "name": "hashToApprove",
                    "type": "bytes32"
                }
            ],
            "name": "approveHash",
            "outputs": [],
            "stateMutability": "nonpayable",
            "type": "function"
        },
        {
            "inputs": [],
            "name": "getChainId",
            "outputs": [
                {
                    "internalType": "uint256",
                    "name": "",
                    "type": "uint256"
                }
            ],
            "stateMutability": "view",
            "type": "function"
        },
        {
            "inputs": [],
            "name": "domainSeparator",
            "outputs": [
                {
                    "internalType": "bytes32",
                    "name": "",
                    "type": "bytes32"
                }
            ],
            "stateMutability": "view",
            "type": "function"
        },
        {
            "inputs": [
                {
                    "internalType": "address",
                    "name": "to",
                    "type": "address"
                },
                {
                    "internalType": "uint256",
                    "name": "value",
                    "type": "uint256"
                },
                {
                    "internalType": "bytes",
                    "name": "data",
                    "type": "bytes"
                },
                {
                    "internalType": "enum Enum.Operation",
                    "name": "operation",
                    "type": "uint8"
                },
                {
                    "internalType": "uint256",
                    "name": "safeTxGas",
                    "type": "uint256"
                },
                {
                    "internalType": "uint256",
                    "name": "baseGas",
                    "type": "uint256"
                },
                {
                    "internalType": "uint256",
                    "name": "gasPrice",
                    "type": "uint256"
                },
                {
                    "internalType": "address",
                    "name": "gasToken",
                    "type": "address"
                },
                {
                    "internalType": "address",
                    "name": "refundReceiver",
                    "type": "address"
                },
                {
                    "internalType": "uint256",
                    "name": "_nonce",
                    "type": "uint256"
                }
            ],
            "name": "encodeTransactionData",
            "outputs": [
                {
                    "internalType": "bytes",
                    "name": "",
                    "type": "bytes"
                }
            ],
            "stateMutability": "view",
            "type": "function"
        },
        {
            "inputs": [
                {
                    "internalType": "address",
                    "name": "to",
                    "type": "address"
                },
                {
                    "internalType": "uint256",
                    "name": "value",
                    "type": "uint256"
                },
                {
                    "internalType": "bytes",
                    "name": "data",
                    "type": "bytes"
                },
                {
                    "internalType": "enum Enum.Operation",
                    "name": "operation",
                    "type": "uint8"
                },
                {
                    "internalType": "uint256",
                    "name": "safeTxGas",
                    "type": "uint256"
                },
                {
                    "internalType": "uint256",
                    "name": "baseGas",
                    "type": "uint256"
                },
                {
                    "internalType": "uint256",
                    "name": "gasPrice",
                    "type": "uint256"
                },
                {
                    "internalType": "address",
                    "name": "gasToken",
                    "type": "address"
                },
                {
                    "internalType": "address",
                    "name": "refundReceiver",
                    "type": "address"
                },
                {
                    "internalType": "uint256",
                    "name": "_nonce",
                    "type": "uint256"
                }
            ],
            "name": "getTransactionHash",
            "outputs": [
                {
                    "internalType": "bytes32",
                    "name": "",
                    "type": "bytes32"
                }
            ],
            "stateMutability": "view",
            "type": "function"
        }
    ],
    "bytecode": "0x608060405234801561001057600080fd5b506001600455613245806100256000396000f3fe6080604052600436106101dc5760003560e01c8063affed0e011610102578063e19a9dd911610095578063f08a032311610064578063f08a03231461060c578063f698da251461062c578063f8dc5dd914610641578063ffa1ad741461066157610224565b8063e19a9dd914610597578063e318b52b146105b7578063e75235b8146105d7578063e86637db146105ec57610224565b8063cc2f8452116100d1578063cc2f845214610509578063d4d9bdcd14610537578063d8d11f7814610557578063e009cfde1461057757610224565b8063affed0e014610494578063b4faba09146104a9578063b63e800d146104c9578063c4ca3a9c146104e957610224565b80635624b25b1161017a5780636a761202116101495780636a7612021461041f5780637d83297414610432578063934f3a1114610452578063a0e67e2b1461047257610224565b80635624b25b146103925780635ae6bd37146103bf578063610b5925146103df578063694e80c3146103ff57610224565b80632f54bf6e116101b65780632f54bf6e146103025780633408e47014610322578063468721a7146103445780635229073f1461036457610224565b80630d582f131461028a57806312fb68e0146102ac5780632d9ad53d146102cc57610224565b3661022457336001600160a01b03167f3d0ce9bfc3ed7d6862dbb28b2dea94561fe714a1b4d019aa8af39730d1ad7c3d3460405161021a9190612af5565b60405180910390a2005b34801561023057600080fd5b507f6c9a6c4a39284e37ed1cf53d337577d14212a4870fb976a4366c693b939918d580548061025b57005b36600080373360601b365260008060143601600080855af190503d6000803e80610284573d6000fd5b503d6000f35b34801561029657600080fd5b506102aa6102a53660046124a5565b610676565b005b3480156102b857600080fd5b506102aa6102c7366004612913565b6107d1565b3480156102d857600080fd5b506102ec6102e73660046123c7565b610b55565b6040516102f99190612c86565b60405180910390f35b34801561030e57600080fd5b506102ec61031d3660046123c7565b610b92565b34801561032e57600080fd5b50610337610bca565b6040516102f99190612af5565b34801561035057600080fd5b506102ec61035f36600461271e565b610bce565b34801561037057600080fd5b5061038461037f36600461271e565b610c8d565b6040516102f9929190612c91565b34801561039e57600080fd5b506103b26103ad3660046129ac565b610cc3565b6040516102f99190612d8b565b3480156103cb57600080fd5b506103376103da366004612892565b610d58565b3480156103eb57600080fd5b506102aa6103fa3660046123c7565b610d6a565b34801561040b57600080fd5b506102aa61041a366004612892565b610e82565b6102ec61042d36600461258b565b610f02565b34801561043e57600080fd5b5061033761044d3660046124a5565b6111f9565b34801561045e57600080fd5b506102aa61046d3660046128aa565b611216565b34801561047e57600080fd5b50610487611248565b6040516102f99190612c49565b3480156104a057600080fd5b50610337611354565b3480156104b557600080fd5b506102aa6104c43660046124d0565b61135a565b3480156104d557600080fd5b506102aa6104e4366004612785565b61137d565b3480156104f557600080fd5b5061033761050436600461251d565b61147f565b34801561051557600080fd5b506105296105243660046124a5565b611517565b6040516102f9929190612c5c565b34801561054357600080fd5b506102aa610552366004612892565b61162c565b34801561056357600080fd5b50610337610572366004612660565b6116a9565b34801561058357600080fd5b506102aa6105923660046123e3565b6116d6565b3480156105a357600080fd5b506102aa6105b23660046123c7565b6117d7565b3480156105c357600080fd5b506102aa6105d236600461241b565b6118e1565b3480156105e357600080fd5b50610337611ab6565b3480156105f857600080fd5b506103b2610607366004612660565b611abc565b34801561061857600080fd5b506102aa6106273660046123c7565b611b7d565b34801561063857600080fd5b50610337611bbd565b34801561064d57600080fd5b506102aa61065c366004612465565b611c16565b34801561066d57600080fd5b506103b2611d6c565b61067e611d8d565b6001600160a01b038216158015906106a057506001600160a01b038216600114155b80156106b557506001600160a01b0382163014155b6106da5760405162461bcd60e51b81526004016106d190612e9c565b60405180910390fd5b6001600160a01b0382811660009081526002602052604090205416156107125760405162461bcd60e51b81526004016106d19061302f565b60026020527fe90b7bceb6e7df5418fb78d8ee546e97c83a08bbccc01a0644d599ccd2a7c2e080546001600160a01b038481166000818152604081208054939094166001600160a01b03199384161790935560018352835490911617909155600380549161077f836131b0565b91905055507f9465fa0c962cc76958e6373a993326400c1c94f8be2fe3a952adfa7f60b2ea26826040516107b39190612afe565b60405180910390a180600454146107cd576107cd81610e82565b5050565b6107dc816041611dae565b825110156107fc5760405162461bcd60e51b81526004016106d1906130ca565b6000808060008060005b86811015610b49576108188882611de7565b9195509350915060ff8416610976579193508391610837876041611dae565b8210156108565760405162461bcd60e51b81526004016106d19061308c565b8751610863836020611e05565b11156108815760405162461bcd60e51b81526004016106d190612e5e565b6020828901810151895190916108a490839061089e908790611e05565b90611e05565b11156108c25760405162461bcd60e51b81526004016106d190612dc3565b6040516320c13b0b60e01b8082528a8501602001916001600160a01b038916906320c13b0b906108f8908f908690600401612d9e565b60206040518083038186803b15801561091057600080fd5b505afa158015610924573d6000803e3d6000fd5b505050506040513d601f19601f820116820180604052508101906109489190612984565b6001600160e01b0319161461096f5760405162461bcd60e51b81526004016106d190612e01565b5050610ac7565b8360ff16600114156109e1579193508391336001600160a01b03841614806109c057506001600160a01b03851660009081526008602090815260408083208d845290915290205415155b6109dc5760405162461bcd60e51b81526004016106d190613010565b610ac7565b601e8460ff161115610a755760018a604051602001610a009190612ac4565b60405160208183030381529060405280519060200120600486610a239190613176565b858560405160008152602001604052604051610a429493929190612d58565b6020604051602081039080840390855afa158015610a64573d6000803e3d6000fd5b505050602060405103519450610ac7565b60018a85858560405160008152602001604052604051610a989493929190612d58565b6020604051602081039080840390855afa158015610aba573d6000803e3d6000fd5b5050506020604051035194505b856001600160a01b0316856001600160a01b0316118015610b0157506001600160a01b038581166000908152600260205260409020541615155b8015610b1757506001600160a01b038516600114155b610b335760405162461bcd60e51b81526004016106d190612de2565b8495508080610b41906131b0565b915050610806565b50505050505050505050565b600060016001600160a01b03831614801590610b8a57506001600160a01b038281166000908152600160205260409020541615155b90505b919050565b60006001600160a01b038216600114801590610b8a5750506001600160a01b0390811660009081526002602052604090205416151590565b4690565b600033600114801590610bf85750336000908152600160205260409020546001600160a01b031615155b610c145760405162461bcd60e51b81526004016106d190612fd2565b610c21858585855a611e21565b90508015610c595760405133907f6895c13664aa4f67288b25d7a21d7aaa34916e355fb9b6fae0a139a9085becb890600090a2610c85565b60405133907facd2c8702804128fdb0db2bb49f6d127dd0181c13fd45dbfe16de0930e2bd37590600090a25b949350505050565b60006060610c9d86868686610bce565b915060405160203d0181016040523d81523d6000602083013e8091505094509492505050565b60606000610cd2836020613140565b6001600160401b03811115610cf757634e487b7160e01b600052604160045260246000fd5b6040519080825280601f01601f191660200182016040528015610d21576020820181803683370190505b50905060005b83811015610d4e578481015460208083028401015280610d46816131b0565b915050610d27565b5090505b92915050565b60076020526000908152604090205481565b610d72611d8d565b6001600160a01b03811615801590610d9457506001600160a01b038116600114155b610db05760405162461bcd60e51b81526004016106d1906130ab565b6001600160a01b038181166000908152600160205260409020541615610de85760405162461bcd60e51b81526004016106d19061304e565b600160208190527fcc69885fda6bcc1a4ace058b4a62bf5e179ea78fd58a1ccd71c22cc9b688792f80546001600160a01b03848116600081815260408082208054949095166001600160a01b031994851617909455949094528254169092179055517fecdf3a3effea5783a3c4c2140e677577666428d44ed9d474a0b3a4c9943f844090610e77908390612afe565b60405180910390a150565b610e8a611d8d565b600354811115610eac5760405162461bcd60e51b81526004016106d190612e3f565b6001811015610ecd5760405162461bcd60e51b81526004016106d190612fb3565b60048190556040517f610f7ff2b304ae8903c3de74c60c6ab1f7d6226b3f52c5161905bb5ad4039c9390610e77908390612af5565b6000806000610f1c8e8e8e8e8e8e8e8e8e8e600554611abc565b600580549192506000610f2e836131b0565b9091555050805160208201209150610f47828286611216565b506000610f52611e77565b90506001600160a01b03811615610fd857806001600160a01b03166375f0bb528f8f8f8f8f8f8f8f8f8f8f336040518d63ffffffff1660e01b8152600401610fa59c9b9a99989796959493929190612b2b565b600060405180830381600087803b158015610fbf57600080fd5b505af1158015610fd3573d6000803e3d6000fd5b505050505b611004610fe78a6109c4613108565b603f610ff48c6040613140565b610ffe9190613120565b90611e9c565b611010906101f4613108565b5a101561102f5760405162461bcd60e51b81526004016106d190612f94565b60005a90506110a08f8f8f8f8080601f016020809104026020016040519081016040528093929190818152602001838380828437600081840152601f19601f820116905080830192505050505050508e8c60001461108d578e61109b565b6109c45a61109b919061315f565b611e21565b93506110ad5a8290611eb3565b905083806110ba57508915155b806110c457508715155b6110e05760405162461bcd60e51b81526004016106d190612f75565b600088156110f8576110f5828b8b8b8b611ece565b90505b841561113c577f442e715f626346e8c54381002da614f62bee8d27386535b2521ec8540898556e848260405161112f929190612d2b565b60405180910390a1611176565b7f23428b18acfb3ea64b08dc0c1d296ea9c09702c09083ca5272e64d115b687d23848260405161116d929190612d2b565b60405180910390a15b50506001600160a01b038116156111e857604051631264e26d60e31b81526001600160a01b038216906393271368906111b59085908790600401612d1b565b600060405180830381600087803b1580156111cf57600080fd5b505af11580156111e3573d6000803e3d6000fd5b505050505b50509b9a5050505050505050505050565b600860209081526000928352604080842090915290825290205481565b600454806112365760405162461bcd60e51b81526004016106d190612f56565b611242848484846107d1565b50505050565b606060006003546001600160401b0381111561127457634e487b7160e01b600052604160045260246000fd5b60405190808252806020026020018201604052801561129d578160200160208202803683370190505b506001600090815260026020527fe90b7bceb6e7df5418fb78d8ee546e97c83a08bbccc01a0644d599ccd2a7c2e054919250906001600160a01b03165b6001600160a01b03811660011461134c578083838151811061130c57634e487b7160e01b600052603260045260246000fd5b6001600160a01b03928316602091820292909201810191909152918116600090815260029092526040909120541681611344816131b0565b9250506112da565b509091505090565b60055481565b600080825160208401855af480600052503d6020523d600060403e60403d016000fd5b6113bb8a8a808060200260200160405190810160405280939291908181526020018383602002808284376000920191909152508c9250611fa4915050565b6001600160a01b038416156113d3576113d384612168565b6114138787878080601f01602080910402602001604051908101604052809392919081815260200183838082843760009201919091525061218c92505050565b811561142a5761142882600060018685611ece565b505b336001600160a01b03167f141df868a6331af528e38c83b7aa03edc19be66e37ae67f9285bf4f8e3c6a1a88b8b8b8b8960405161146b959493929190612bdd565b60405180910390a250505050505050505050565b6000805a90506114c8878787878080601f01602080910402602001604051908101604052809392919081815260200183838082843760009201919091525089925050505a611e21565b6114d157600080fd5b60005a6114de908361315f565b9050806040516020016114f19190612af5565b60408051601f198184030181529082905262461bcd60e51b82526106d191600401612d8b565b60606000826001600160401b0381111561154157634e487b7160e01b600052604160045260246000fd5b60405190808252806020026020018201604052801561156a578160200160208202803683370190505b506001600160a01b0380861660009081526001602052604081205492945091165b6001600160a01b038116158015906115ad57506001600160a01b038116600114155b80156115b857508482105b1561161e57808483815181106115de57634e487b7160e01b600052603260045260246000fd5b6001600160a01b03928316602091820292909201810191909152918116600090815260019092526040909120541681611616816131b0565b92505061158b565b908352919491935090915050565b336000908152600260205260409020546001600160a01b03166116615760405162461bcd60e51b81526004016106d190612e20565b336000818152600860209081526040808320858452909152808220600190555183917ff2a0eb156472d1440255b0d7c1e19cc07115d1051fe605b0dce69acfec884d9c91a350565b60006116be8c8c8c8c8c8c8c8c8c8c8c611abc565b8051906020012090509b9a5050505050505050505050565b6116de611d8d565b6001600160a01b0381161580159061170057506001600160a01b038116600114155b61171c5760405162461bcd60e51b81526004016106d1906130ab565b6001600160a01b038281166000908152600160205260409020548116908216146117585760405162461bcd60e51b81526004016106d190612ef9565b6001600160a01b03818116600081815260016020526040808220805487861684528284208054919096166001600160a01b0319918216179095559290915281549092169055517faab4fa2b463f581b2b32cb3b7e3b704b9ce37cc209b5fb4d77e593ace4054276906117cb908390612afe565b60405180910390a15050565b6117df611d8d565b6001600160a01b0381161561188d576040516301ffc9a760e01b81526001600160a01b038216906301ffc9a7906118219063736bd41d60e11b90600401612d76565b60206040518083038186803b15801561183957600080fd5b505afa15801561184d573d6000803e3d6000fd5b505050506040513d601f19601f820116820180604052508101906118719190612872565b61188d5760405162461bcd60e51b81526004016106d19061306d565b7f4a204f620c8c5ccdca3fd54d003badd85ba500436a431f0cbda4f558c93c34c88181556040517f1151116914515bc0891ff9047a6cb32cf902546f83066499bcf8ba33d2353fa2906117cb908490612afe565b6118e9611d8d565b6001600160a01b0381161580159061190b57506001600160a01b038116600114155b801561192057506001600160a01b0381163014155b61193c5760405162461bcd60e51b81526004016106d190612e9c565b6001600160a01b0381811660009081526002602052604090205416156119745760405162461bcd60e51b81526004016106d19061302f565b6001600160a01b0382161580159061199657506001600160a01b038216600114155b6119b25760405162461bcd60e51b81526004016106d190612e9c565b6001600160a01b038381166000908152600260205260409020548116908316146119ee5760405162461bcd60e51b81526004016106d1906130e9565b6001600160a01b03828116600081815260026020526040808220805486861680855283852080549288166001600160a01b03199384161790559589168452828420805482169096179095559290915281549092169055517ff8d49fc529812e9a7c5c50e69c20f0dccc0db8fa95c98bc58cc9a4f1c1299eaf90611a72908490612afe565b60405180910390a17f9465fa0c962cc76958e6373a993326400c1c94f8be2fe3a952adfa7f60b2ea2681604051611aa99190612afe565b60405180910390a1505050565b60045490565b606060007fbb8310d486368db6bd6f849402fdd73ad53d316b5a4b2644ad6efe0f941286d860001b8d8d8d8d604051611af6929190612ab4565b604051908190038120611b1c949392918e908e908e908e908e908e908e90602001612cac565b60408051601f1981840301815291905280516020909101209050601960f81b600160f81b611b48611bbd565b83604051602001611b5c9493929190612a8a565b6040516020818303038152906040529150509b9a5050505050505050505050565b611b85611d8d565b611b8e81612168565b7f5ac6c46c93c8d0e53714ba3b53db3e7c046da994313d7ed0d192028bc7c228b081604051610e779190612afe565b60007f47e79534a245952e8b16893a336b85a3d9ea9fa8c573f3d803afb92a79469218611be8610bca565b30604051602001611bfb93929190612d39565b60405160208183030381529060405280519060200120905090565b611c1e611d8d565b806001600354611c2e919061315f565b1015611c4c5760405162461bcd60e51b81526004016106d190612e3f565b6001600160a01b03821615801590611c6e57506001600160a01b038216600114155b611c8a5760405162461bcd60e51b81526004016106d190612e9c565b6001600160a01b03838116600090815260026020526040902054811690831614611cc65760405162461bcd60e51b81526004016106d1906130e9565b6001600160a01b03828116600081815260026020526040808220805488861684529183208054929095166001600160a01b03199283161790945591815282549091169091556003805491611d1983613199565b91905055507ff8d49fc529812e9a7c5c50e69c20f0dccc0db8fa95c98bc58cc9a4f1c1299eaf82604051611d4d9190612afe565b60405180910390a18060045414611d6757611d6781610e82565b505050565b604051806040016040528060058152602001640312e332e360dc1b81525081565b333014611dac5760405162461bcd60e51b81526004016106d190612ff1565b565b600082611dbd57506000610d52565b6000611dc98385613140565b905082611dd68583613120565b14611de057600080fd5b9392505050565b60419081029190910160208101516040820151919092015160ff1692565b600080611e128385613108565b905083811015611de057600080fd5b60006001836001811115611e4557634e487b7160e01b600052602160045260246000fd5b1415611e5e576000808551602087018986f49050611e6e565b600080855160208701888a87f190505b95945050505050565b7f4a204f620c8c5ccdca3fd54d003badd85ba500436a431f0cbda4f558c93c34c85490565b600081831015611eac5781611de0565b5090919050565b600082821115611ec257600080fd5b6000610c85838561315f565b6000806001600160a01b03831615611ee65782611ee8565b325b90506001600160a01b038416611f6357611f1a3a8610611f08573a611f0a565b855b611f148989611e05565b90611dae565b6040519092506001600160a01b0382169083156108fc029084906000818181858888f19350505050611f5e5760405162461bcd60e51b81526004016106d190612eda565b611f9a565b611f7185611f148989611e05565b9150611f7e848284612256565b611f9a5760405162461bcd60e51b81526004016106d190612f18565b5095945050505050565b60045415611fc45760405162461bcd60e51b81526004016106d190612e7d565b8151811115611fe55760405162461bcd60e51b81526004016106d190612e3f565b60018110156120065760405162461bcd60e51b81526004016106d190612fb3565b600160005b835181101561213557600084828151811061203657634e487b7160e01b600052603260045260246000fd5b6020026020010151905060006001600160a01b0316816001600160a01b03161415801561206d57506001600160a01b038116600114155b801561208257506001600160a01b0381163014155b80156120a05750806001600160a01b0316836001600160a01b031614155b6120bc5760405162461bcd60e51b81526004016106d190612e9c565b6001600160a01b0381811660009081526002602052604090205416156120f45760405162461bcd60e51b81526004016106d19061302f565b6001600160a01b03928316600090815260026020526040902080546001600160a01b031916938216939093179092558061212d816131b0565b91505061200b565b506001600160a01b0316600090815260026020526040902080546001600160a01b03191660011790559051600355600455565b7f6c9a6c4a39284e37ed1cf53d337577d14212a4870fb976a4366c693b939918d555565b600160008190526020527fcc69885fda6bcc1a4ace058b4a62bf5e179ea78fd58a1ccd71c22cc9b688792f546001600160a01b0316156121de5760405162461bcd60e51b81526004016106d190612f37565b6001600081905260208190527fcc69885fda6bcc1a4ace058b4a62bf5e179ea78fd58a1ccd71c22cc9b688792f80546001600160a01b03191690911790556001600160a01b038216156107cd5761223a8260008360015a611e21565b6107cd5760405162461bcd60e51b81526004016106d190612ebb565b60008063a9059cbb8484604051602401612271929190612b12565b6040516020818303038152906040529060e01b6020820180516001600160e01b0383818316178352505050509050602060008251602084016000896127105a03f13d80156122ca57602081146122d257600093506122dd565b8193506122dd565b600051158215171593505b5050509392505050565b8035610b8d816131f7565b60008083601f840112612303578182fd5b5081356001600160401b03811115612319578182fd5b60208301915083602082850101111561233157600080fd5b9250929050565b600082601f830112612348578081fd5b81356001600160401b0380821115612362576123626131e1565b604051601f8301601f191681016020018281118282101715612386576123866131e1565b60405282815284830160200186101561239d578384fd5b82602086016020830137918201602001929092529392505050565b803560028110610b8d57600080fd5b6000602082840312156123d8578081fd5b8135611de0816131f7565b600080604083850312156123f5578081fd5b8235612400816131f7565b91506020830135612410816131f7565b809150509250929050565b60008060006060848603121561242f578081fd5b833561243a816131f7565b9250602084013561244a816131f7565b9150604084013561245a816131f7565b809150509250925092565b600080600060608486031215612479578283fd5b8335612484816131f7565b92506020840135612494816131f7565b929592945050506040919091013590565b600080604083850312156124b7578182fd5b82356124c2816131f7565b946020939093013593505050565b600080604083850312156124e2578182fd5b82356124ed816131f7565b915060208301356001600160401b03811115612507578182fd5b61251385828601612338565b9150509250929050565b600080600080600060808688031215612534578081fd5b853561253f816131f7565b94506020860135935060408601356001600160401b03811115612560578182fd5b61256c888289016122f2565b909450925061257f9050606087016123b8565b90509295509295909350565b60008060008060008060008060008060006101408c8e0312156125ac578586fd5b6125b58c6122e7565b9a5060208c013599506001600160401b038060408e013511156125d6578687fd5b6125e68e60408f01358f016122f2565b909a5098506125f760608e016123b8565b975060808d0135965060a08d0135955060c08d0135945061261a60e08e016122e7565b93506126296101008e016122e7565b9250806101208e0135111561263c578182fd5b5061264e8d6101208e01358e01612338565b90509295989b509295989b9093969950565b60008060008060008060008060008060006101408c8e031215612681578485fd5b8b3561268c816131f7565b9a5060208c0135995060408c01356001600160401b038111156126ad578586fd5b6126b98e828f016122f2565b909a5098506126cc905060608d016123b8565b965060808c0135955060a08c0135945060c08c0135935060e08c01356126f1816131f7565b92506101008c0135612702816131f7565b809250506101208c013590509295989b509295989b9093969950565b60008060008060808587031215612733578182fd5b843561273e816131f7565b93506020850135925060408501356001600160401b0381111561275f578283fd5b61276b87828801612338565b92505061277a606086016123b8565b905092959194509250565b6000806000806000806000806000806101008b8d0312156127a4578384fd5b8a356001600160401b03808211156127ba578586fd5b818d0191508d601f8301126127cd578586fd5b8135818111156127db578687fd5b8e602080830285010111156127ee578687fd5b60208381019d50909b508d0135995061280960408e016122e7565b985060608d013591508082111561281e578586fd5b5061282b8d828e016122f2565b909750955061283e905060808c016122e7565b935061284c60a08c016122e7565b925060c08b0135915061286160e08c016122e7565b90509295989b9194979a5092959850565b600060208284031215612883578081fd5b81518015158114611de0578182fd5b6000602082840312156128a3578081fd5b5035919050565b6000806000606084860312156128be578081fd5b8335925060208401356001600160401b03808211156128db578283fd5b6128e787838801612338565b935060408601359150808211156128fc578283fd5b5061290986828701612338565b9150509250925092565b60008060008060808587031215612928578182fd5b8435935060208501356001600160401b0380821115612945578384fd5b61295188838901612338565b94506040870135915080821115612966578384fd5b5061297387828801612338565b949793965093946060013593505050565b600060208284031215612995578081fd5b81516001600160e01b031981168114611de0578182fd5b600080604083850312156129be578182fd5b50508035926020909101359150565b6001600160a01b03169052565b6000815180845260208085019450808401835b83811015612a125781516001600160a01b0316875295820195908201906001016129ed565b509495945050505050565b60008151808452815b81811015612a4257602081850181015186830182015201612a26565b81811115612a535782602083870101525b50601f01601f19169290920160200192915050565b60028110612a8657634e487b7160e01b600052602160045260246000fd5b9052565b6001600160f81b031994851681529290931660018301526002820152602281019190915260420190565b6000828483379101908152919050565b7f19457468657265756d205369676e6564204d6573736167653a0a3332000000008152601c810191909152603c0190565b90815260200190565b6001600160a01b0391909116815260200190565b6001600160a01b03929092168252602082015260400190565b6001600160a01b038d168152602081018c90526101606040820181905281018a905260006101808b8d8285013781818d85010152601f19601f8d01168301612b76606085018d612a68565b8a60808501528960a08501528860c0850152612b9560e08501896129cd565b612ba36101008501886129cd565b8184820301610120850152612bba82820187612a1d565b92505050612bcc6101408301846129cd565b9d9c50505050505050505050505050565b6080808252810185905260008660a08301825b88811015612c20578235612c03816131f7565b6001600160a01b0316825260209283019290910190600101612bf0565b50602084019690965250506001600160a01b039283166040820152911660609091015292915050565b600060208252611de060208301846129da565b600060408252612c6f60408301856129da565b905060018060a01b03831660208301529392505050565b901515815260200190565b6000831515825260406020830152610c856040830184612a1d565b8b81526001600160a01b038b81166020830152604082018b9052606082018a9052610160820190612ce0608084018b612a68565b60a083019890985260c082019690965260e0810194909452918516610100840152909316610120820152610140019190915295945050505050565b9182521515602082015260400190565b918252602082015260400190565b92835260208301919091526001600160a01b0316604082015260600190565b93845260ff9290921660208401526040830152606082015260800190565b6001600160e01b031991909116815260200190565b600060208252611de06020830184612a1d565b600060408252612db16040830185612a1d565b8281036020840152611e6e8185612a1d565b602080825260059082015264475330323360d81b604082015260600190565b60208082526005908201526423a998191b60d91b604082015260600190565b60208082526005908201526411d4cc0c8d60da1b604082015260600190565b602080825260059082015264047533033360dc1b604082015260600190565b602080825260059082015264475332303160d81b604082015260600190565b60208082526005908201526423a998191960d91b604082015260600190565b602080825260059082015264047533230360dc1b604082015260600190565b602080825260059082015264475332303360d81b604082015260600190565b602080825260059082015264047533030360dc1b604082015260600190565b602080825260059082015264475330313160d81b604082015260600190565b602080825260059082015264475331303360d81b604082015260600190565b60208082526005908201526423a998189960d91b604082015260600190565b602080825260059082015264047533130360dc1b604082015260600190565b602080825260059082015264475330303160d81b604082015260600190565b602080825260059082015264475330313360d81b604082015260600190565b602080825260059082015264047533031360dc1b604082015260600190565b60208082526005908201526423a999181960d91b604082015260600190565b60208082526005908201526411d4cc4c0d60da1b604082015260600190565b602080825260059082015264475330333160d81b604082015260600190565b602080825260059082015264475330323560d81b604082015260600190565b60208082526005908201526411d4cc8c0d60da1b604082015260600190565b60208082526005908201526423a998981960d91b604082015260600190565b602080825260059082015264047533330360dc1b604082015260600190565b602080825260059082015264475330323160d81b604082015260600190565b602080825260059082015264475331303160d81b604082015260600190565b602080825260059082015264047533032360dc1b604082015260600190565b602080825260059082015264475332303560d81b604082015260600190565b6000821982111561311b5761311b6131cb565b500190565b60008261313b57634e487b7160e01b81526012600452602481fd5b500490565b600081600019048311821515161561315a5761315a6131cb565b500290565b600082821015613171576131716131cb565b500390565b600060ff821660ff841680821015613190576131906131cb565b90039392505050565b6000816131a8576131a86131cb565b506000190190565b60006000198214156131c4576131c46131cb565b5060010190565b634e487b7160e01b600052601160045260246000fd5b634e487b7160e01b600052604160045260246000fd5b6001600160a01b038116811461320c57600080fd5b5056fea2646970667358221220f13042a1298eb388af1decc30eba6f3fbc7f643901cb6ec69114e82793aae4ca64736f6c63430008000033",
    "immutableReferences": {},
    "source": "// SPDX-License-Identifier: LGPL-3.0-only\r\npragma solidity >=0.7.0 <0.9.0;\r\n\r\nimport \"./base/ModuleManager.sol\";\r\nimport \"./base/OwnerManager.sol\";\r\nimport \"./base/FallbackManager.sol\";\r\nimport \"./base/GuardManager.sol\";\r\nimport \"./common/EtherPaymentFallback.sol\";\r\nimport \"./common/Singleton.sol\";\r\nimport \"./common/SignatureDecoder.sol\";\r\nimport \"./common/SecuredTokenTransfer.sol\";\r\nimport \"./common/StorageAccessible.sol\";\r\nimport \"./interfaces/ISignatureValidator.sol\";\r\nimport \"./external/GnosisSafeMath.sol\";\r\n\r\n/// @title Gnosis Safe - A multisignature wallet with support for confirmations using signed messages based on ERC191.\r\n/// @author Stefan George - <stefan@gnosis.io>\r\n/// @author Richard Meissner - <richard@gnosis.io>\r\ncontract GnosisSafe is\r\n    EtherPaymentFallback,\r\n    Singleton,\r\n    ModuleManager,\r\n    OwnerManager,\r\n    SignatureDecoder,\r\n    SecuredTokenTransfer,\r\n    ISignatureValidatorConstants,\r\n    FallbackManager,\r\n    StorageAccessible,\r\n    GuardManager\r\n{\r\n    using GnosisSafeMath for uint256;\r\n\r\n    string public constant VERSION = \"1.3.0\";\r\n\r\n    // keccak256(\r\n    //     \"EIP712Domain(uint256 chainId,address verifyingContract)\"\r\n    // );\r\n    bytes32 private constant DOMAIN_SEPARATOR_TYPEHASH = 0x47e79534a245952e8b16893a336b85a3d9ea9fa8c573f3d803afb92a79469218;\r\n\r\n    // keccak256(\r\n    //     \"SafeTx(address to,uint256 value,bytes data,uint8 operation,uint256 safeTxGas,uint256 baseGas,uint256 gasPrice,address gasToken,address refundReceiver,uint256 nonce)\"\r\n    // );\r\n    bytes32 private constant SAFE_TX_TYPEHASH = 0xbb8310d486368db6bd6f849402fdd73ad53d316b5a4b2644ad6efe0f941286d8;\r\n\r\n    event SafeSetup(address indexed initiator, address[] owners, uint256 threshold, address initializer, address fallbackHandler);\r\n    event ApproveHash(bytes32 indexed approvedHash, address indexed owner);\r\n    event SignMsg(bytes32 indexed msgHash);\r\n    event ExecutionFailure(bytes32 txHash, uint256 payment);\r\n    event ExecutionSuccess(bytes32 txHash, uint256 payment);\r\n\r\n    uint256 public nonce;\r\n    bytes32 private _deprecatedDomainSeparator;\r\n    // Mapping to keep track of all message hashes that have been approved by ALL REQUIRED owners\r\n    mapping(bytes32 => uint256) public signedMessages;\r\n    // Mapping to keep track of all hashes (message or transaction) that have been approved by ANY owners\r\n    mapping(address => mapping(bytes32 => uint256)) public approvedHashes;\r\n\r\n    // This constructor ensures that this contract can only be used as a master copy for Proxy contracts\r\n    constructor() {\r\n        // By setting the threshold it is not possible to call setup anymore,\r\n        // so we create a Safe with 0 owners and threshold 1.\r\n        // This is an unusable Safe, perfect for the singleton\r\n        threshold = 1;\r\n    }\r\n\r\n    /// @dev Setup function sets initial storage of contract.\r\n    /// @param _owners List of Safe owners.\r\n    /// @param _threshold Number of required confirmations for a Safe transaction.\r\n    /// @param to Contract address for optional delegate call.\r\n    /// @param data Data payload for optional delegate call.\r\n    /// @param fallbackHandler Handler for fallback calls to this contract\r\n    /// @param paymentToken Token that should be used for the payment (0 is ETH)\r\n    /// @param payment Value that should be paid\r\n    /// @param paymentReceiver Address that should receive the payment (or 0 if tx.origin)\r\n    function setup(\r\n        address[] calldata _owners,\r\n        uint256 _threshold,\r\n        address to,\r\n        bytes calldata data,\r\n        address fallbackHandler,\r\n        address paymentToken,\r\n        uint256 payment,\r\n        address payable paymentReceiver\r\n    ) external {\r\n        // setupOwners checks if the Threshold is already set, therefore preventing that this method is called twice\r\n        setupOwners(_owners, _threshold);\r\n        if (fallbackHandler != address(0)) internalSetFallbackHandler(fallbackHandler);\r\n        // As setupOwners can only be called if the contract has not been initialized we don't need a check for setupModules\r\n        setupModules(to, data);\r\n\r\n        if (payment > 0) {\r\n            // To avoid running into issues with EIP-170 we reuse the handlePayment function (to avoid adjusting code of that has been verified we do not adjust the method itself)\r\n            // baseGas = 0, gasPrice = 1 and gas = payment => amount = (payment + 0) * 1 = payment\r\n            handlePayment(payment, 0, 1, paymentToken, paymentReceiver);\r\n        }\r\n        emit SafeSetup(msg.sender, _owners, _threshold, to, fallbackHandler);\r\n    }\r\n\r\n    /// @dev Allows to execute a Safe transaction confirmed by required number of owners and then pays the account that submitted the transaction.\r\n    ///      Note: The fees are always transferred, even if the user transaction fails.\r\n    /// @param to Destination address of Safe transaction.\r\n    /// @param value Ether value of Safe transaction.\r\n    /// @param data Data payload of Safe transaction.\r\n    /// @param operation Operation type of Safe transaction.\r\n    /// @param safeTxGas Gas that should be used for the Safe transaction.\r\n    /// @param baseGas Gas costs that are independent of the transaction execution(e.g. base transaction fee, signature check, payment of the refund)\r\n    /// @param gasPrice Gas price that should be used for the payment calculation.\r\n    /// @param gasToken Token address (or 0 if ETH) that is used for the payment.\r\n    /// @param refundReceiver Address of receiver of gas payment (or 0 if tx.origin).\r\n    /// @param signatures Packed signature data ({bytes32 r}{bytes32 s}{uint8 v})\r\n    function execTransaction(\r\n        address to,\r\n        uint256 value,\r\n        bytes calldata data,\r\n        Enum.Operation operation,\r\n        uint256 safeTxGas,\r\n        uint256 baseGas,\r\n        uint256 gasPrice,\r\n        address gasToken,\r\n        address payable refundReceiver,\r\n        bytes memory signatures\r\n    ) public payable virtual returns (bool success) {\r\n        bytes32 txHash;\r\n        // Use scope here to limit variable lifetime and prevent `stack too deep` errors\r\n        {\r\n            bytes memory txHashData =\r\n                encodeTransactionData(\r\n                    // Transaction info\r\n                    to,\r\n                    value,\r\n                    data,\r\n                    operation,\r\n                    safeTxGas,\r\n                    // Payment info\r\n                    baseGas,\r\n                    gasPrice,\r\n                    gasToken,\r\n                    refundReceiver,\r\n                    // Signature info\r\n                    nonce\r\n                );\r\n            // Increase nonce and execute transaction.\r\n            nonce++;\r\n            txHash = keccak256(txHashData);\r\n            checkSignatures(txHash, txHashData, signatures);\r\n        }\r\n        address guard = getGuard();\r\n        {\r\n            if (guard != address(0)) {\r\n                Guard(guard).checkTransaction(\r\n                    // Transaction info\r\n                    to,\r\n                    value,\r\n                    data,\r\n                    operation,\r\n                    safeTxGas,\r\n                    // Payment info\r\n                    baseGas,\r\n                    gasPrice,\r\n                    gasToken,\r\n                    refundReceiver,\r\n                    // Signature info\r\n                    signatures,\r\n                    msg.sender\r\n                );\r\n            }\r\n        }\r\n        // We require some gas to emit the events (at least 2500) after the execution and some to perform code until the execution (500)\r\n        // We also include the 1/64 in the check that is not send along with a call to counteract potential shortings because of EIP-150\r\n        require(gasleft() >= ((safeTxGas * 64) / 63).max(safeTxGas + 2500) + 500, \"GS010\");\r\n        // Use scope here to limit variable lifetime and prevent `stack too deep` errors\r\n        {\r\n            uint256 gasUsed = gasleft();\r\n            // If the gasPrice is 0 we assume that nearly all available gas can be used (it is always more than safeTxGas)\r\n            // We only substract 2500 (compared to the 3000 before) to ensure that the amount passed is still higher than safeTxGas\r\n            success = execute(to, value, data, operation, gasPrice == 0 ? (gasleft() - 2500) : safeTxGas);\r\n            gasUsed = gasUsed.sub(gasleft());\r\n            // If no safeTxGas and no gasPrice was set (e.g. both are 0), then the internal tx is required to be successful\r\n            // This makes it possible to use `estimateGas` without issues, as it searches for the minimum gas where the tx doesn't revert\r\n            require(success || safeTxGas != 0 || gasPrice != 0, \"GS013\");\r\n            // We transfer the calculated tx costs to the tx.origin to avoid sending it to intermediate contracts that have made calls\r\n            uint256 payment = 0;\r\n            if (gasPrice > 0) {\r\n                payment = handlePayment(gasUsed, baseGas, gasPrice, gasToken, refundReceiver);\r\n            }\r\n            if (success) emit ExecutionSuccess(txHash, payment);\r\n            else emit ExecutionFailure(txHash, payment);\r\n        }\r\n        {\r\n            if (guard != address(0)) {\r\n                Guard(guard).checkAfterExecution(txHash, success);\r\n            }\r\n        }\r\n    }\r\n\r\n    function handlePayment(\r\n        uint256 gasUsed,\r\n        uint256 baseGas,\r\n        uint256 gasPrice,\r\n        address gasToken,\r\n        address payable refundReceiver\r\n    ) private returns (uint256 payment) {\r\n        // solhint-disable-next-line avoid-tx-origin\r\n        address payable receiver = refundReceiver == address(0) ? payable(tx.origin) : refundReceiver;\r\n        if (gasToken == address(0)) {\r\n            // For ETH we will only adjust the gas price to not be higher than the actual used gas price\r\n            payment = gasUsed.add(baseGas).mul(gasPrice < tx.gasprice ? gasPrice : tx.gasprice);\r\n            require(receiver.send(payment), \"GS011\");\r\n        } else {\r\n            payment = gasUsed.add(baseGas).mul(gasPrice);\r\n            require(transferToken(gasToken, receiver, payment), \"GS012\");\r\n        }\r\n    }\r\n\r\n    /**\r\n     * @dev Checks whether the signature provided is valid for the provided data, hash. Will revert otherwise.\r\n     * @param dataHash Hash of the data (could be either a message hash or transaction hash)\r\n     * @param data That should be signed (this is passed to an external validator contract)\r\n     * @param signatures Signature data that should be verified. Can be ECDSA signature, contract signature (EIP-1271) or approved hash.\r\n     */\r\n    function checkSignatures(\r\n        bytes32 dataHash,\r\n        bytes memory data,\r\n        bytes memory signatures\r\n    ) public view {\r\n        // Load threshold to avoid multiple storage loads\r\n        uint256 _threshold = threshold;\r\n        // Check that a threshold is set\r\n        require(_threshold > 0, \"GS001\");\r\n        checkNSignatures(dataHash, data, signatures, _threshold);\r\n    }\r\n\r\n    /**\r\n     * @dev Checks whether the signature provided is valid for the provided data, hash. Will revert otherwise.\r\n     * @param dataHash Hash of the data (could be either a message hash or transaction hash)\r\n     * @param data That should be signed (this is passed to an external validator contract)\r\n     * @param signatures Signature data that should be verified. Can be ECDSA signature, contract signature (EIP-1271) or approved hash.\r\n     * @param requiredSignatures Amount of required valid signatures.\r\n     */\r\n    function checkNSignatures(\r\n        bytes32 dataHash,\r\n        bytes memory data,\r\n        bytes memory signatures,\r\n        uint256 requiredSignatures\r\n    ) public view {\r\n        // Check that the provided signature data is not too short\r\n        require(signatures.length >= requiredSignatures.mul(65), \"GS020\");\r\n        // There cannot be an owner with address 0.\r\n        address lastOwner = address(0);\r\n        address currentOwner;\r\n        uint8 v;\r\n        bytes32 r;\r\n        bytes32 s;\r\n        uint256 i;\r\n        for (i = 0; i < requiredSignatures; i++) {\r\n            (v, r, s) = signatureSplit(signatures, i);\r\n            if (v == 0) {\r\n                // If v is 0 then it is a contract signature\r\n                // When handling contract signatures the address of the contract is encoded into r\r\n                currentOwner = address(uint160(uint256(r)));\r\n\r\n                // Check that signature data pointer (s) is not pointing inside the static part of the signatures bytes\r\n                // This check is not completely accurate, since it is possible that more signatures than the threshold are send.\r\n                // Here we only check that the pointer is not pointing inside the part that is being processed\r\n                require(uint256(s) >= requiredSignatures.mul(65), \"GS021\");\r\n\r\n                // Check that signature data pointer (s) is in bounds (points to the length of data -> 32 bytes)\r\n                require(uint256(s).add(32) <= signatures.length, \"GS022\");\r\n\r\n                // Check if the contract signature is in bounds: start of data is s + 32 and end is start + signature length\r\n                uint256 contractSignatureLen;\r\n                // solhint-disable-next-line no-inline-assembly\r\n                assembly {\r\n                    contractSignatureLen := mload(add(add(signatures, s), 0x20))\r\n                }\r\n                require(uint256(s).add(32).add(contractSignatureLen) <= signatures.length, \"GS023\");\r\n\r\n                // Check signature\r\n                bytes memory contractSignature;\r\n                // solhint-disable-next-line no-inline-assembly\r\n                assembly {\r\n                    // The signature data for contract signatures is appended to the concatenated signatures and the offset is stored in s\r\n                    contractSignature := add(add(signatures, s), 0x20)\r\n                }\r\n                require(ISignatureValidator(currentOwner).isValidSignature(data, contractSignature) == EIP1271_MAGIC_VALUE, \"GS024\");\r\n            } else if (v == 1) {\r\n                // If v is 1 then it is an approved hash\r\n                // When handling approved hashes the address of the approver is encoded into r\r\n                currentOwner = address(uint160(uint256(r)));\r\n                // Hashes are automatically approved by the sender of the message or when they have been pre-approved via a separate transaction\r\n                require(msg.sender == currentOwner || approvedHashes[currentOwner][dataHash] != 0, \"GS025\");\r\n            } else if (v > 30) {\r\n                // If v > 30 then default va (27,28) has been adjusted for eth_sign flow\r\n                // To support eth_sign and similar we adjust v and hash the messageHash with the Ethereum message prefix before applying ecrecover\r\n                currentOwner = ecrecover(keccak256(abi.encodePacked(\"\\x19Ethereum Signed Message:\\n32\", dataHash)), v - 4, r, s);\r\n            } else {\r\n                // Default is the ecrecover flow with the provided data hash\r\n                // Use ecrecover with the messageHash for EOA signatures\r\n                currentOwner = ecrecover(dataHash, v, r, s);\r\n            }\r\n            require(currentOwner > lastOwner && owners[currentOwner] != address(0) && currentOwner != SENTINEL_OWNERS, \"GS026\");\r\n            lastOwner = currentOwner;\r\n        }\r\n    }\r\n\r\n    /// @dev Allows to estimate a Safe transaction.\r\n    ///      This method is only meant for estimation purpose, therefore the call will always revert and encode the result in the revert data.\r\n    ///      Since the `estimateGas` function includes refunds, call this method to get an estimated of the costs that are deducted from the safe with `execTransaction`\r\n    /// @param to Destination address of Safe transaction.\r\n    /// @param value Ether value of Safe transaction.\r\n    /// @param data Data payload of Safe transaction.\r\n    /// @param operation Operation type of Safe transaction.\r\n    /// @return Estimate without refunds and overhead fees (base transaction and payload data gas costs).\r\n    /// @notice Deprecated in favor of common/StorageAccessible.sol and will be removed in next version.\r\n    function requiredTxGas(\r\n        address to,\r\n        uint256 value,\r\n        bytes calldata data,\r\n        Enum.Operation operation\r\n    ) external returns (uint256) {\r\n        uint256 startGas = gasleft();\r\n        // We don't provide an error message here, as we use it to return the estimate\r\n        require(execute(to, value, data, operation, gasleft()));\r\n        uint256 requiredGas = startGas - gasleft();\r\n        // Convert response to string and return via error message\r\n        revert(string(abi.encodePacked(requiredGas)));\r\n    }\r\n\r\n    /**\r\n     * @dev Marks a hash as approved. This can be used to validate a hash that is used by a signature.\r\n     * @param hashToApprove The hash that should be marked as approved for signatures that are verified by this contract.\r\n     */\r\n    function approveHash(bytes32 hashToApprove) external {\r\n        require(owners[msg.sender] != address(0), \"GS030\");\r\n        approvedHashes[msg.sender][hashToApprove] = 1;\r\n        emit ApproveHash(hashToApprove, msg.sender);\r\n    }\r\n\r\n    /// @dev Returns the chain id used by this contract.\r\n    function getChainId() public view returns (uint256) {\r\n        uint256 id;\r\n        // solhint-disable-next-line no-inline-assembly\r\n        assembly {\r\n            id := chainid()\r\n        }\r\n        return id;\r\n    }\r\n\r\n    function domainSeparator() public view returns (bytes32) {\r\n        return keccak256(abi.encode(DOMAIN_SEPARATOR_TYPEHASH, getChainId(), this));\r\n    }\r\n\r\n    /// @dev Returns the bytes that are hashed to be signed by owners.\r\n    /// @param to Destination address.\r\n    /// @param value Ether value.\r\n    /// @param data Data payload.\r\n    /// @param operation Operation type.\r\n    /// @param safeTxGas Gas that should be used for the safe transaction.\r\n    /// @param baseGas Gas costs for that are independent of the transaction execution(e.g. base transaction fee, signature check, payment of the refund)\r\n    /// @param gasPrice Maximum gas price that should be used for this transaction.\r\n    /// @param gasToken Token address (or 0 if ETH) that is used for the payment.\r\n    /// @param refundReceiver Address of receiver of gas payment (or 0 if tx.origin).\r\n    /// @param _nonce Transaction nonce.\r\n    /// @return Transaction hash bytes.\r\n    function encodeTransactionData(\r\n        address to,\r\n        uint256 value,\r\n        bytes calldata data,\r\n        Enum.Operation operation,\r\n        uint256 safeTxGas,\r\n        uint256 baseGas,\r\n        uint256 gasPrice,\r\n        address gasToken,\r\n        address refundReceiver,\r\n        uint256 _nonce\r\n    ) public view returns (bytes memory) {\r\n        bytes32 safeTxHash =\r\n            keccak256(\r\n                abi.encode(\r\n                    SAFE_TX_TYPEHASH,\r\n                    to,\r\n                    value,\r\n                    keccak256(data),\r\n                    operation,\r\n                    safeTxGas,\r\n                    baseGas,\r\n                    gasPrice,\r\n                    gasToken,\r\n                    refundReceiver,\r\n                    _nonce\r\n                )\r\n            );\r\n        return abi.encodePacked(bytes1(0x19), bytes1(0x01), domainSeparator(), safeTxHash);\r\n    }\r\n\r\n    /// @dev Returns hash to be signed by owners.\r\n    /// @param to Destination address.\r\n    /// @param value Ether value.\r\n    /// @param data Data payload.\r\n    /// @param operation Operation type.\r\n    /// @param safeTxGas Fas that should be used for the safe transaction.\r\n    /// @param baseGas Gas costs for data used to trigger the safe transaction.\r\n    /// @param gasPrice Maximum gas price that should be used for this transaction.\r\n    /// @param gasToken Token address (or 0 if ETH) that is used for the payment.\r\n    /// @param refundReceiver Address of receiver of gas payment (or 0 if tx.origin).\r\n    /// @param _nonce Transaction nonce.\r\n    /// @return Transaction hash.\r\n    function getTransactionHash(\r\n        address to,\r\n        uint256 value,\r\n        bytes calldata data,\r\n        Enum.Operation operation,\r\n        uint256 safeTxGas,\r\n        uint256 baseGas,\r\n        uint256 gasPrice,\r\n        address gasToken,\r\n        address refundReceiver,\r\n        uint256 _nonce\r\n    ) public view returns (bytes32) {\r\n        return keccak256(encodeTransactionData(to, value, data, operation, safeTxGas, baseGas, gasPrice, gasToken, refundReceiver, _nonce));\r\n    }\r\n}\r\n",
    "sourcePath": "C:\\Users\\USER\\Documents\\philip_projects\\Meter projects\\lottery\\contracts\\GnosisSafe.sol",
    "compiler": {
        "name": "solc",
        "version": "0.8.0+commit.c7dfd78e.Emscripten.clang"
    },
    "schemaVersion": "3.4.0",
    "updatedAt": "2021-06-10T17:41:11.593Z",
    "devdoc": {
        "author": "Stefan George - <stefan@gnosis.io>Richard Meissner - <richard@gnosis.io>",
        "kind": "dev",
        "methods": {
            "addOwnerWithThreshold(address,uint256)": {
                "details": "Allows to add a new owner to the Safe and update the threshold at the same time.      This can only be done via a Safe transaction.",
                "params": {
                    "_threshold": "New threshold.",
                    "owner": "New owner address."
                }
            },
            "approveHash(bytes32)": {
                "details": "Marks a hash as approved. This can be used to validate a hash that is used by a signature.",
                "params": {
                    "hashToApprove": "The hash that should be marked as approved for signatures that are verified by this contract."
                }
            },
            "changeThreshold(uint256)": {
                "details": "Allows to update the number of required confirmations by Safe owners.      This can only be done via a Safe transaction.",
                "params": {
                    "_threshold": "New threshold."
                }
            },
            "checkNSignatures(bytes32,bytes,bytes,uint256)": {
                "details": "Checks whether the signature provided is valid for the provided data, hash. Will revert otherwise.",
                "params": {
                    "data": "That should be signed (this is passed to an external validator contract)",
                    "dataHash": "Hash of the data (could be either a message hash or transaction hash)",
                    "requiredSignatures": "Amount of required valid signatures.",
                    "signatures": "Signature data that should be verified. Can be ECDSA signature, contract signature (EIP-1271) or approved hash."
                }
            },
            "checkSignatures(bytes32,bytes,bytes)": {
                "details": "Checks whether the signature provided is valid for the provided data, hash. Will revert otherwise.",
                "params": {
                    "data": "That should be signed (this is passed to an external validator contract)",
                    "dataHash": "Hash of the data (could be either a message hash or transaction hash)",
                    "signatures": "Signature data that should be verified. Can be ECDSA signature, contract signature (EIP-1271) or approved hash."
                }
            },
            "disableModule(address,address)": {
                "details": "Allows to remove a module from the whitelist.      This can only be done via a Safe transaction.",
                "params": {
                    "module": "Module to be removed.",
                    "prevModule": "Module that pointed to the module to be removed in the linked list"
                }
            },
            "enableModule(address)": {
                "details": "Allows to add a module to the whitelist.      This can only be done via a Safe transaction.",
                "params": {
                    "module": "Module to be whitelisted."
                }
            },
            "encodeTransactionData(address,uint256,bytes,uint8,uint256,uint256,uint256,address,address,uint256)": {
                "details": "Returns the bytes that are hashed to be signed by owners.",
                "params": {
                    "_nonce": "Transaction nonce.",
                    "baseGas": "Gas costs for that are independent of the transaction execution(e.g. base transaction fee, signature check, payment of the refund)",
                    "data": "Data payload.",
                    "gasPrice": "Maximum gas price that should be used for this transaction.",
                    "gasToken": "Token address (or 0 if ETH) that is used for the payment.",
                    "operation": "Operation type.",
                    "refundReceiver": "Address of receiver of gas payment (or 0 if tx.origin).",
                    "safeTxGas": "Gas that should be used for the safe transaction.",
                    "to": "Destination address.",
                    "value": "Ether value."
                },
                "returns": {
                    "_0": "Transaction hash bytes."
                }
            },
            "execTransaction(address,uint256,bytes,uint8,uint256,uint256,uint256,address,address,bytes)": {
                "details": "Allows to execute a Safe transaction confirmed by required number of owners and then pays the account that submitted the transaction.      Note: The fees are always transferred, even if the user transaction fails.",
                "params": {
                    "baseGas": "Gas costs that are independent of the transaction execution(e.g. base transaction fee, signature check, payment of the refund)",
                    "data": "Data payload of Safe transaction.",
                    "gasPrice": "Gas price that should be used for the payment calculation.",
                    "gasToken": "Token address (or 0 if ETH) that is used for the payment.",
                    "operation": "Operation type of Safe transaction.",
                    "refundReceiver": "Address of receiver of gas payment (or 0 if tx.origin).",
                    "safeTxGas": "Gas that should be used for the Safe transaction.",
                    "signatures": "Packed signature data ({bytes32 r}{bytes32 s}{uint8 v})",
                    "to": "Destination address of Safe transaction.",
                    "value": "Ether value of Safe transaction."
                }
            },
            "execTransactionFromModule(address,uint256,bytes,uint8)": {
                "details": "Allows a Module to execute a Safe transaction without any further confirmations.",
                "params": {
                    "data": "Data payload of module transaction.",
                    "operation": "Operation type of module transaction.",
                    "to": "Destination address of module transaction.",
                    "value": "Ether value of module transaction."
                }
            },
            "execTransactionFromModuleReturnData(address,uint256,bytes,uint8)": {
                "details": "Allows a Module to execute a Safe transaction without any further confirmations and return data",
                "params": {
                    "data": "Data payload of module transaction.",
                    "operation": "Operation type of module transaction.",
                    "to": "Destination address of module transaction.",
                    "value": "Ether value of module transaction."
                }
            },
            "getChainId()": {
                "details": "Returns the chain id used by this contract."
            },
            "getModulesPaginated(address,uint256)": {
                "details": "Returns array of modules.",
                "params": {
                    "pageSize": "Maximum number of modules that should be returned.",
                    "start": "Start of the page."
                },
                "returns": {
                    "array": "Array of modules.",
                    "next": "Start of the next page."
                }
            },
            "getOwners()": {
                "details": "Returns array of owners.",
                "returns": {
                    "_0": "Array of Safe owners."
                }
            },
            "getStorageAt(uint256,uint256)": {
                "details": "Reads `length` bytes of storage in the currents contract",
                "params": {
                    "length": "- the number of words (32 bytes) of data to read",
                    "offset": "- the offset in the current contract's storage in words to start reading from"
                },
                "returns": {
                    "_0": "the bytes that were read."
                }
            },
            "getTransactionHash(address,uint256,bytes,uint8,uint256,uint256,uint256,address,address,uint256)": {
                "details": "Returns hash to be signed by owners.",
                "params": {
                    "_nonce": "Transaction nonce.",
                    "baseGas": "Gas costs for data used to trigger the safe transaction.",
                    "data": "Data payload.",
                    "gasPrice": "Maximum gas price that should be used for this transaction.",
                    "gasToken": "Token address (or 0 if ETH) that is used for the payment.",
                    "operation": "Operation type.",
                    "refundReceiver": "Address of receiver of gas payment (or 0 if tx.origin).",
                    "safeTxGas": "Fas that should be used for the safe transaction.",
                    "to": "Destination address.",
                    "value": "Ether value."
                },
                "returns": {
                    "_0": "Transaction hash."
                }
            },
            "isModuleEnabled(address)": {
                "details": "Returns if an module is enabled",
                "returns": {
                    "_0": "True if the module is enabled"
                }
            },
            "removeOwner(address,address,uint256)": {
                "details": "Allows to remove an owner from the Safe and update the threshold at the same time.      This can only be done via a Safe transaction.",
                "params": {
                    "_threshold": "New threshold.",
                    "owner": "Owner address to be removed.",
                    "prevOwner": "Owner that pointed to the owner to be removed in the linked list"
                }
            },
            "requiredTxGas(address,uint256,bytes,uint8)": {
                "details": "Allows to estimate a Safe transaction.      This method is only meant for estimation purpose, therefore the call will always revert and encode the result in the revert data.      Since the `estimateGas` function includes refunds, call this method to get an estimated of the costs that are deducted from the safe with `execTransaction`",
                "params": {
                    "data": "Data payload of Safe transaction.",
                    "operation": "Operation type of Safe transaction.",
                    "to": "Destination address of Safe transaction.",
                    "value": "Ether value of Safe transaction."
                },
                "returns": {
                    "_0": "Estimate without refunds and overhead fees (base transaction and payload data gas costs)."
                }
            },
            "setFallbackHandler(address)": {
                "details": "Allows to add a contract to handle fallback calls.      Only fallback calls without value and with data will be forwarded.      This can only be done via a Safe transaction.",
                "params": {
                    "handler": "contract to handle fallback calls."
                }
            },
            "setGuard(address)": {
                "details": "Set a guard that checks transactions before execution",
                "params": {
                    "guard": "The address of the guard to be used or the 0 address to disable the guard"
                }
            },
            "setup(address[],uint256,address,bytes,address,address,uint256,address)": {
                "details": "Setup function sets initial storage of contract.",
                "params": {
                    "_owners": "List of Safe owners.",
                    "_threshold": "Number of required confirmations for a Safe transaction.",
                    "data": "Data payload for optional delegate call.",
                    "fallbackHandler": "Handler for fallback calls to this contract",
                    "payment": "Value that should be paid",
                    "paymentReceiver": "Address that should receive the payment (or 0 if tx.origin)",
                    "paymentToken": "Token that should be used for the payment (0 is ETH)",
                    "to": "Contract address for optional delegate call."
                }
            },
            "simulateAndRevert(address,bytes)": {
                "details": "Performs a delegatecall on a targetContract in the context of self. Internally reverts execution to avoid side effects (making it static). This method reverts with data equal to `abi.encode(bool(success), bytes(response))`. Specifically, the `returndata` after a call to this method will be: `success:bool || response.length:uint256 || response:bytes`.",
                "params": {
                    "calldataPayload": "Calldata that should be sent to the target contract (encoded method name and arguments).",
                    "targetContract": "Address of the contract containing the code to execute."
                }
            },
            "swapOwner(address,address,address)": {
                "details": "Allows to swap/replace an owner from the Safe with another address.      This can only be done via a Safe transaction.",
                "params": {
                    "newOwner": "New owner address.",
                    "oldOwner": "Owner address to be replaced.",
                    "prevOwner": "Owner that pointed to the owner to be replaced in the linked list"
                }
            }
        },
        "title": "Gnosis Safe - A multisignature wallet with support for confirmations using signed messages based on ERC191.",
        "version": 1
    },
    "userdoc": {
        "kind": "user",
        "methods": {
            "addOwnerWithThreshold(address,uint256)": {
                "notice": "Adds the owner `owner` to the Safe and updates the threshold to `_threshold`."
            },
            "changeThreshold(uint256)": {
                "notice": "Changes the threshold of the Safe to `_threshold`."
            },
            "disableModule(address,address)": {
                "notice": "Disables the module `module` for the Safe."
            },
            "enableModule(address)": {
                "notice": "Enables the module `module` for the Safe."
            },
            "removeOwner(address,address,uint256)": {
                "notice": "Removes the owner `owner` from the Safe and updates the threshold to `_threshold`."
            },
            "requiredTxGas(address,uint256,bytes,uint8)": {
                "notice": "Deprecated in favor of common/StorageAccessible.sol and will be removed in next version."
            },
            "swapOwner(address,address,address)": {
                "notice": "Replaces the owner `oldOwner` in the Safe with `newOwner`."
            }
        },
        "version": 1
    }
}