{
    "contractName": "GnosisSafeProxyFactory",
    "abi": [
        {
            "anonymous": false,
            "inputs": [
                {
                    "indexed": false,
                    "internalType": "contract GnosisSafeProxy",
                    "name": "proxy",
                    "type": "address"
                },
                {
                    "indexed": false,
                    "internalType": "address",
                    "name": "singleton",
                    "type": "address"
                }
            ],
            "name": "ProxyCreation",
            "type": "event"
        },
        {
            "inputs": [
                {
                    "internalType": "address",
                    "name": "singleton",
                    "type": "address"
                },
                {
                    "internalType": "bytes",
                    "name": "data",
                    "type": "bytes"
                }
            ],
            "name": "createProxy",
            "outputs": [
                {
                    "internalType": "contract GnosisSafeProxy",
                    "name": "proxy",
                    "type": "address"
                }
            ],
            "stateMutability": "nonpayable",
            "type": "function"
        },
        {
            "inputs": [],
            "name": "proxyRuntimeCode",
            "outputs": [
                {
                    "internalType": "bytes",
                    "name": "",
                    "type": "bytes"
                }
            ],
            "stateMutability": "pure",
            "type": "function"
        },
        {
            "inputs": [],
            "name": "proxyCreationCode",
            "outputs": [
                {
                    "internalType": "bytes",
                    "name": "",
                    "type": "bytes"
                }
            ],
            "stateMutability": "pure",
            "type": "function"
        },
        {
            "inputs": [
                {
                    "internalType": "address",
                    "name": "_singleton",
                    "type": "address"
                },
                {
                    "internalType": "bytes",
                    "name": "initializer",
                    "type": "bytes"
                },
                {
                    "internalType": "uint256",
                    "name": "saltNonce",
                    "type": "uint256"
                }
            ],
            "name": "createProxyWithNonce",
            "outputs": [
                {
                    "internalType": "contract GnosisSafeProxy",
                    "name": "proxy",
                    "type": "address"
                }
            ],
            "stateMutability": "nonpayable",
            "type": "function"
        },
        {
            "inputs": [
                {
                    "internalType": "address",
                    "name": "_singleton",
                    "type": "address"
                },
                {
                    "internalType": "bytes",
                    "name": "initializer",
                    "type": "bytes"
                },
                {
                    "internalType": "uint256",
                    "name": "saltNonce",
                    "type": "uint256"
                },
                {
                    "internalType": "contract IProxyCreationCallback",
                    "name": "callback",
                    "type": "address"
                }
            ],
            "name": "createProxyWithCallback",
            "outputs": [
                {
                    "internalType": "contract GnosisSafeProxy",
                    "name": "proxy",
                    "type": "address"
                }
            ],
            "stateMutability": "nonpayable",
            "type": "function"
        },
        {
            "inputs": [
                {
                    "internalType": "address",
                    "name": "_singleton",
                    "type": "address"
                },
                {
                    "internalType": "bytes",
                    "name": "initializer",
                    "type": "bytes"
                },
                {
                    "internalType": "uint256",
                    "name": "saltNonce",
                    "type": "uint256"
                }
            ],
            "name": "calculateCreateProxyWithNonceAddress",
            "outputs": [
                {
                    "internalType": "contract GnosisSafeProxy",
                    "name": "proxy",
                    "type": "address"
                }
            ],
            "stateMutability": "nonpayable",
            "type": "function"
        }
    ],
    "bytecode": "0x608060405234801561001057600080fd5b506109f0806100206000396000f3fe608060405234801561001057600080fd5b50600436106100625760003560e01c80631688f0b9146100675780632500510e1461009057806353e5d935146100a357806361b69abd146100b8578063addacc0f146100cb578063d18af54d146100d3575b600080fd5b61007a610075366004610557565b6100e6565b60405161008791906106b1565b60405180910390f35b61007a61009e366004610483565b610135565b6100ab6101bb565b60405161008791906106c5565b61007a6100c6366004610509565b6101e5565b6100ab61025c565b61007a6100e13660046105ae565b61026e565b60006100f3848484610329565b90507f4f51faf6c4561ff95f067657e43439f0f856d97c04d9ec9070a6199ad418e23581856040516101269291906106df565b60405180910390a19392505050565b60006101798585858080601f016020809104026020016040519081016040528093929190818152602001838380828437600092019190915250879250610329915050565b90508060405160200161018c9190610674565b60408051601f198184030181529082905262461bcd60e51b82526101b2916004016106c5565b60405180910390fd5b6060604051806020016101cd906103e9565b601f1982820381018352601f90910116604052905090565b6000826040516101f4906103e9565b6101fe91906106b1565b604051809103906000f08015801561021a573d6000803e3d6000fd5b5090507f4f51faf6c4561ff95f067657e43439f0f856d97c04d9ec9070a6199ad418e235818460405161024e9291906106df565b60405180910390a192915050565b6060604051806020016101cd906103f6565b6000808383604051602001610284929190610691565b6040516020818303038152906040528051906020012060001c90506102aa8686836100e6565b91506001600160a01b03831615610320576040516303ca56a360e31b81526001600160a01b03841690631e52b518906102ed9085908a908a908a906004016106f9565b600060405180830381600087803b15801561030757600080fd5b505af115801561031b573d6000803e3d6000fd5b505050505b50949350505050565b600080838051906020012083604051602001610346929190610644565b604051602081830303815290604052805190602001209050600060405180602001610370906103e9565b601f1982820381018352601f90910116604081905261039d91906001600160a01b03891690602001610652565b6040516020818303038152906040529050818151826020016000f592506001600160a01b0383166103e05760405162461bcd60e51b81526004016101b290610736565b50509392505050565b61017d806107c283390190565b607c8061093f83390190565b600082601f830112610412578081fd5b813567ffffffffffffffff8082111561042d5761042d610793565b604051601f8301601f19168101602001828111828210171561045157610451610793565b604052828152848301602001861015610468578384fd5b82602086016020830137918201602001929092529392505050565b60008060008060608587031215610498578384fd5b84356104a3816107a9565b9350602085013567ffffffffffffffff808211156104bf578485fd5b818701915087601f8301126104d2578485fd5b8135818111156104e0578586fd5b8860208285010111156104f1578586fd5b95986020929092019750949560400135945092505050565b6000806040838503121561051b578182fd5b8235610526816107a9565b9150602083013567ffffffffffffffff811115610541578182fd5b61054d85828601610402565b9150509250929050565b60008060006060848603121561056b578283fd5b8335610576816107a9565b9250602084013567ffffffffffffffff811115610591578283fd5b61059d86828701610402565b925050604084013590509250925092565b600080600080608085870312156105c3578384fd5b84356105ce816107a9565b9350602085013567ffffffffffffffff8111156105e9578384fd5b6105f587828801610402565b93505060408501359150606085013561060d816107a9565b939692955090935050565b60008151808452610630816020860160208601610763565b601f01601f19169290920160200192915050565b918252602082015260400190565b60008351610664818460208801610763565b9190910191825250602001919050565b60609190911b6bffffffffffffffffffffffff1916815260140190565b91825260601b6bffffffffffffffffffffffff1916602082015260340190565b6001600160a01b0391909116815260200190565b6000602082526106d86020830184610618565b9392505050565b6001600160a01b0392831681529116602082015260400190565b6001600160a01b0385811682528416602082015260806040820181905260009061072590830185610618565b905082606083015295945050505050565b60208082526013908201527210dc99585d194c8818d85b1b0819985a5b1959606a1b604082015260600190565b60005b8381101561077e578181015183820152602001610766565b8381111561078d576000848401525b50505050565b634e487b7160e01b600052604160045260246000fd5b6001600160a01b03811681146107be57600080fd5b5056fe608060405234801561001057600080fd5b5060405161017d38038061017d83398101604081905261002f91610083565b6001600160a01b03811661005e5760405162461bcd60e51b8152600401610055906100b1565b60405180910390fd5b600080546001600160a01b0319166001600160a01b03929092169190911790556100f3565b600060208284031215610094578081fd5b81516001600160a01b03811681146100aa578182fd5b9392505050565b60208082526022908201527f496e76616c69642073696e676c65746f6e20616464726573732070726f766964604082015261195960f21b606082015260800190565b607c806101016000396000f3fe6080604052600080546001600160a01b0316813563530ca43760e11b1415602857808252602082f35b3682833781823684845af490503d82833e806041573d82fd5b503d81f3fea2646970667358221220215be46a48e4e4a4612698f8d4171a32dc4d1ae49cadb2d62d6d868980ae85b564736f6c634300080000336080604052600080546001600160a01b0316813563530ca43760e11b1415602857808252602082f35b3682833781823684845af490503d82833e806041573d82fd5b503d81f3fea2646970667358221220215be46a48e4e4a4612698f8d4171a32dc4d1ae49cadb2d62d6d868980ae85b564736f6c63430008000033a26469706673582212205a08046ddc3a9602f6bd4be450fa6e15f3285f9d9426fdcc434c7e36c63dab0064736f6c63430008000033",
    "immutableReferences": {},
    "source": "// SPDX-License-Identifier: LGPL-3.0-only\r\npragma solidity >=0.7.0 <0.9.0;\r\n\r\nimport \"./GnosisSafeProxy.sol\";\r\nimport \"./IProxyCreationCallback.sol\";\r\n\r\n/// @title Proxy Factory - Allows to create new proxy contact and execute a message call to the new proxy within one transaction.\r\n/// @author Stefan George - <stefan@gnosis.pm>\r\ncontract GnosisSafeProxyFactory {\r\n    event ProxyCreation(GnosisSafeProxy proxy, address singleton);\r\n\r\n    /// @dev Allows to create new proxy contact and execute a message call to the new proxy within one transaction.\r\n    /// @param singleton Address of singleton contract.\r\n    /// @param data Payload for message call sent to new proxy contract.\r\n    function createProxy(address singleton, bytes memory data) public returns (GnosisSafeProxy proxy) {\r\n        proxy = new GnosisSafeProxy(singleton);\r\n        // if (data.length > 0)\r\n        //     // solhint-disable-next-line no-inline-assembly\r\n        //     assembly {\r\n        //         if eq(call(gas(), proxy, 0, add(data, 0x20), mload(data), 0, 0), 0) {\r\n        //             revert(0, 0)\r\n        //         }\r\n        //     }\r\n        emit ProxyCreation(proxy, singleton);\r\n    }\r\n\r\n    /// @dev Allows to retrieve the runtime code of a deployed Proxy. This can be used to check that the expected Proxy was deployed.\r\n    function proxyRuntimeCode() public pure returns (bytes memory) {\r\n        return type(GnosisSafeProxy).runtimeCode;\r\n    }\r\n\r\n    /// @dev Allows to retrieve the creation code used for the Proxy deployment. With this it is easily possible to calculate predicted address.\r\n    function proxyCreationCode() public pure returns (bytes memory) {\r\n        return type(GnosisSafeProxy).creationCode;\r\n    }\r\n\r\n    /// @dev Allows to create new proxy contact using CREATE2 but it doesn't run the initializer.\r\n    ///      This method is only meant as an utility to be called from other methods\r\n    /// @param _singleton Address of singleton contract.\r\n    /// @param initializer Payload for message call sent to new proxy contract.\r\n    /// @param saltNonce Nonce that will be used to generate the salt to calculate the address of the new proxy contract.\r\n    function deployProxyWithNonce(\r\n        address _singleton,\r\n        bytes memory initializer,\r\n        uint256 saltNonce\r\n    ) internal returns (GnosisSafeProxy proxy) {\r\n        // If the initializer changes the proxy address should change too. Hashing the initializer data is cheaper than just concatinating it\r\n        bytes32 salt = keccak256(abi.encodePacked(keccak256(initializer), saltNonce));\r\n        bytes memory deploymentData = abi.encodePacked(type(GnosisSafeProxy).creationCode, uint256(uint160(_singleton)));\r\n        // solhint-disable-next-line no-inline-assembly\r\n        assembly {\r\n            proxy := create2(0x0, add(0x20, deploymentData), mload(deploymentData), salt)\r\n        }\r\n        require(address(proxy) != address(0), \"Create2 call failed\");\r\n    }\r\n\r\n    /// @dev Allows to create new proxy contact and execute a message call to the new proxy within one transaction.\r\n    /// @param _singleton Address of singleton contract.\r\n    /// @param initializer Payload for message call sent to new proxy contract.\r\n    /// @param saltNonce Nonce that will be used to generate the salt to calculate the address of the new proxy contract.\r\n    function createProxyWithNonce(\r\n        address _singleton,\r\n        bytes memory initializer,\r\n        uint256 saltNonce\r\n    ) public returns (GnosisSafeProxy proxy) {\r\n        proxy = deployProxyWithNonce(_singleton, initializer, saltNonce);\r\n        // if (initializer.length > 0)\r\n        //     // solhint-disable-next-line no-inline-assembly\r\n        //     assembly {\r\n        //         if eq(call(gas(), proxy, 0, add(initializer, 0x20), mload(initializer), 0, 0), 0) {\r\n        //             revert(0, 0)\r\n        //         }\r\n        //     }\r\n        emit ProxyCreation(proxy, _singleton);\r\n    }\r\n\r\n    /// @dev Allows to create new proxy contact, execute a message call to the new proxy and call a specified callback within one transaction\r\n    /// @param _singleton Address of singleton contract.\r\n    /// @param initializer Payload for message call sent to new proxy contract.\r\n    /// @param saltNonce Nonce that will be used to generate the salt to calculate the address of the new proxy contract.\r\n    /// @param callback Callback that will be invoked after the new proxy contract has been successfully deployed and initialized.\r\n    function createProxyWithCallback(\r\n        address _singleton,\r\n        bytes memory initializer,\r\n        uint256 saltNonce,\r\n        IProxyCreationCallback callback\r\n    ) public returns (GnosisSafeProxy proxy) {\r\n        uint256 saltNonceWithCallback = uint256(keccak256(abi.encodePacked(saltNonce, callback)));\r\n        proxy = createProxyWithNonce(_singleton, initializer, saltNonceWithCallback);\r\n        if (address(callback) != address(0)) callback.proxyCreated(proxy, _singleton, initializer, saltNonce);\r\n    }\r\n\r\n    /// @dev Allows to get the address for a new proxy contact created via `createProxyWithNonce`\r\n    ///      This method is only meant for address calculation purpose when you use an initializer that would revert,\r\n    ///      therefore the response is returned with a revert. When calling this method set `from` to the address of the proxy factory.\r\n    /// @param _singleton Address of singleton contract.\r\n    /// @param initializer Payload for message call sent to new proxy contract.\r\n    /// @param saltNonce Nonce that will be used to generate the salt to calculate the address of the new proxy contract.\r\n    function calculateCreateProxyWithNonceAddress(\r\n        address _singleton,\r\n        bytes calldata initializer,\r\n        uint256 saltNonce\r\n    ) external returns (GnosisSafeProxy proxy) {\r\n        proxy = deployProxyWithNonce(_singleton, initializer, saltNonce);\r\n        revert(string(abi.encodePacked(proxy)));\r\n    }\r\n}\r\n",
    "sourcePath": "C:/Users/USER/Documents/philip_projects/Meter projects/lottery/contracts/proxies/GnosisSafeProxyFactory.sol",
    "compiler": {
        "name": "solc",
        "version": "0.8.0+commit.c7dfd78e.Emscripten.clang"
    },
    "schemaVersion": "3.4.0",
    "updatedAt": "2021-06-10T17:41:17.114Z",
    "devdoc": {
        "author": "Stefan George - <stefan@gnosis.pm>",
        "kind": "dev",
        "methods": {
            "calculateCreateProxyWithNonceAddress(address,bytes,uint256)": {
                "details": "Allows to get the address for a new proxy contact created via `createProxyWithNonce`      This method is only meant for address calculation purpose when you use an initializer that would revert,      therefore the response is returned with a revert. When calling this method set `from` to the address of the proxy factory.",
                "params": {
                    "_singleton": "Address of singleton contract.",
                    "initializer": "Payload for message call sent to new proxy contract.",
                    "saltNonce": "Nonce that will be used to generate the salt to calculate the address of the new proxy contract."
                }
            },
            "createProxy(address,bytes)": {
                "details": "Allows to create new proxy contact and execute a message call to the new proxy within one transaction.",
                "params": {
                    "data": "Payload for message call sent to new proxy contract.",
                    "singleton": "Address of singleton contract."
                }
            },
            "createProxyWithCallback(address,bytes,uint256,address)": {
                "details": "Allows to create new proxy contact, execute a message call to the new proxy and call a specified callback within one transaction",
                "params": {
                    "_singleton": "Address of singleton contract.",
                    "callback": "Callback that will be invoked after the new proxy contract has been successfully deployed and initialized.",
                    "initializer": "Payload for message call sent to new proxy contract.",
                    "saltNonce": "Nonce that will be used to generate the salt to calculate the address of the new proxy contract."
                }
            },
            "createProxyWithNonce(address,bytes,uint256)": {
                "details": "Allows to create new proxy contact and execute a message call to the new proxy within one transaction.",
                "params": {
                    "_singleton": "Address of singleton contract.",
                    "initializer": "Payload for message call sent to new proxy contract.",
                    "saltNonce": "Nonce that will be used to generate the salt to calculate the address of the new proxy contract."
                }
            },
            "proxyCreationCode()": {
                "details": "Allows to retrieve the creation code used for the Proxy deployment. With this it is easily possible to calculate predicted address."
            },
            "proxyRuntimeCode()": {
                "details": "Allows to retrieve the runtime code of a deployed Proxy. This can be used to check that the expected Proxy was deployed."
            }
        },
        "title": "Proxy Factory - Allows to create new proxy contact and execute a message call to the new proxy within one transaction.",
        "version": 1
    },
    "userdoc": {
        "kind": "user",
        "methods": {},
        "version": 1
    }
}